:100000000C9434000C943E000C943E000C943E0082
:100010000C943E000C943E000C943E000C943E0068
:100020000C943E000C943E000C943E000C943E0058
:100030000C943E000C943E000C943E000C943E0048
:100040000C943E000C943E000C943E000C943E0038
:100050000C943E000C943E000C943E000C943E0028
:100060000C943E000C943E0011241FBECFEFD8E04C
:10007000DEBFCDBF0E9440000C945A000C940000DB
:100080008FEF87B984B985B92FE33DE093E0215024
:1000900030409040E1F700C00000299888B92FE374
:1000A0003DE093E0215030409040E1F700C0000077
:0800B00018B8E9CFF894FFCF66
:00000001FF
